:100000000C942A000C9453010C9490010C9425013B
:100010000C9447000C9447000C9447000C94470044
:100020000C9447000C9447000C9447000C94470034
:100030000C9447000C9447000C9447000C94470024
:100040000C9447000C9447000C9447000C94470014
:100050000C94470011241FBECFE5D8E0DEBFCDBF12
:1000600010E0A0E6B0E0E2E2FEE002C005900D92F2
:10007000AA3CB107D9F720E0AAECB0E001C01D927C
:10008000AE3CB207E1F70E94FB040C940F070C94FE
:1000900000000E9451024091600060E080EA0E94EE
:1000A000540283EC99E00197F1F700C000000E9430
:1000B00002050E94490381E090E00E948A040E94A8
:1000C0007F040E94FE020E9495020E94450208954C
:1000D0000E949E020E9488040E94CE038CE00E942F
:1000E0001A030E944F020E9413030E9406050895FE
:1000F000CF92DF92EF92FF920F931F93CF93DF93F4
:100100001F92CDB7DEB719820E940C038091CA00FE
:10011000811108C0AE014F5F5F4F60E080EA0E942E
:10012000730203C08091600089830E94A3048C0144
:100130000E94040578018091CB009091CC0080173B
:10014000910721F48091CA00823011F5C8016AE05C
:1001500070E00E94A7066C01CB010E940805C60151
:100160000E9442058CE00E941A030E94CE0381E6A1
:1001700090E00E94BF0383EC99E00197F1F700C083
:100180000000C8010E94DB031093CC000093CB0059
:10019000C8014E97C39790F00E94470283ED90E309
:1001A0000197F1F700C00000C8010E94DB0387EA55
:1001B00091E60197F1F700C0000002C00E944F02D3
:1001C000898190E09801281B390B26303105A4F075
:1001D0000E949B020E9481048091CB009091CC00F0
:1001E000E816F90629F11093CC000093CB008AE6BB
:1001F00090E00E94BF031CC0801B910B0697A4F0E7
:100200000E9498020E9483048091CB009091CC00C0
:10021000E816F90669F01093CC000093CB0086E74E
:1002200090E00E94BF0304C00E949E020E948804C6
:1002300081E08093CA000F90DF91CF911F910F91C1
:10024000FF90EF90DF90CF9008951F920F920FB61E
:100250000F9211242F933F934F935F936F937F934C
:100260008F939F93AF93BF93EF93FF938091CD00B4
:10027000811104C081E08093CD0004C01092CD00B4
:100280000E942004FF91EF91BF91AF919F918F91B8
:100290007F916F915F914F913F912F910F900FBE82
:1002A0000F901F9018951F920F920FB60F92112466
:1002B0002F933F934F935F936F937F938F939F936E
:1002C000AF93BF93EF93FF938091CD00823049F0BD
:1002D00082E08093CD008091600090E00E943A041B
:1002E0000BC0809160008B3420F08BE48093600021
:1002F00003C08B5F8093600082E08093CD00FF910C
:10030000EF91BF91AF919F918F917F916F915F918D
:100310004F913F912F910F900FBE0F901F90189506
:100320001F920F920FB60F9211242F933F934F936A
:100330005F936F937F938F939F93AF93BF93EF934D
:10034000FF938091CD00823049F082E08093CD0010
:100350008091600090E00E943A040BC080916000A0
:10036000843220F483E28093600003C08550809340
:10037000600082E08093CD00FF91EF91BF91AF913B
:100380009F918F917F916F915F914F913F912F91AD
:100390000F900FBE0F901F901895EF92FF920F9342
:1003A0001F93CF93DF939DEC899F912D11249695F8
:1003B00096959695E92EF12C990F292F220F220F51
:1003C000920F891B082F10E0C9E1D0E00E940405BC
:1003D000C7010E940805C8010E94420587EA91E60C
:1003E0000197F1F700C000000E94060587EA91E638
:1003F0000197F1F700C00000219741F7DF91CF91FD
:100400001F910F91FF90EF9008950E94CE0383EC0F
:1004100099E00197F1F700C0000082E890E00E94A7
:10042000BF0387EA91E60197F1F700C000008091D1
:10043000600090E00E943A04809160000E94CD012B
:100440000E9488040E949E024091600060E080EA61
:100450000E94540281E08093CD0082E08093CA0024
:1004600008958091CD00811103C00E946800F9CFEA
:10047000813019F40E947800F4CF823019F40E9480
:100480000502EFCF1092CD00ECCF889A0895909A94
:100490000E94CE0380E990E00E94BF0308959098E7
:1004A00008950E94A1020895CF93DF93D62FC42F01
:1004B0000E94A5028D2F90E00E94DF0283EC99E05C
:1004C0000197F1F700C000008C2F90E00E94DF023E
:1004D00083EC99E00197F1F700C000000E94F80258
:1004E000DF91CF9108950F931F93CF93DF93C82F80
:1004F000D62F8A010E94A5028D2F90E00E94DF0274
:1005000081E08C0F0E94C2020E94F102F8018083F8
:1005100083EC99E00197F1F700C000000E94F80217
:10052000DF91CF911F910F910895B89AB99A0895CC
:10053000C09AC1980895C098C19A0895C098C1986A
:10054000089511B88AE280B9089594EA96BF06B674
:1005500007FEFDCF91B1987F983071F483B984E89C
:1005600086BF06B607FEFDCF81B1887F883131F0A6
:10057000803231F083E0089580E0089581E00895AD
:1005800082E0089594EA96BF06B607FEFDCF91B1CA
:10059000987F903171F483B984E886BF06B607FE70
:1005A000FDCF81B1887F803431F0883431F083E031
:1005B000089580E0089581E0089582E0089583B968
:1005C00084E886BF06B607FEFDCF81B1887F8832FA
:1005D00021F0803321F082E0089580E0089581E0E9
:1005E000089584EC86BF06B607FEFDCF83B108955B
:1005F00084E986BF06B604FCFDCF089585B7886000
:1006000085BF85B7826085BF85B7816085BF8BB7A1
:1006100080628BBF789408958BB780648BBF8BB753
:1006200080688BBF08958BB78F7B8BBF8BB78F771D
:100630008BBF089592B39F70282F207F922B92BB7F
:10064000AD98AE98AF9AE7E9FAE33197F1F700C0B9
:100650000000AF98E7E9FAE33197F1F700C0000036
:1006600022B32F70F0E18F9FC0011124822B82BB37
:10067000AD98AE98AF9A87E99AE30197F1F700C079
:100680000000AF98E7E9FAE33197F1F700C0000006
:100690000895A59AA69AA79A8C9A8D9A8E9A8F9A5F
:1006A0002FE58AEE90E0215080409040E1F700C0B5
:1006B000000082E00E941A0387E99AE30197F1F7AC
:1006C00000C0000088E20E941A0387E99AE30197BC
:1006D000F1F700C0000080E80E941A0387E99AE35E
:1006E0000197F1F700C000008CE00E941A0387E92F
:1006F0009AE30197F1F700C0000081E00E941A031D
:1007000087E99AE30197F1F700C0000086E00E94B4
:100710001A0387E99AE30197F1F700C000000895F2
:1007200092B39F70282F207F922B92BBAD9AAE98E8
:10073000AF9AE7E9FAE33197F1F700C00000AF980C
:10074000E7E9FAE33197F1F700C0000022B32F7018
:10075000F0E18F9FC0011124822B82BBAD9AAE982D
:10076000AF9A87E99AE30197F1F700C00000AF98CC
:10077000E7E9FAE33197F1F700C000000895CF935D
:10078000DF93EC018881882331F021960E94900349
:1007900089918111FBCFDF91CF91089581E00E9473
:1007A0001A0387E99AE30197F1F700C0000080E897
:1007B0000E941A030895EF92FF920F931F93CF9315
:1007C000DF9300D01F92CDB7DEB78C010E94CE031D
:1007D0008EE990E00E94BF0380EC0E941A0380E241
:1007E00089838A838B834AE050E0BE016F5F7F4F2D
:1007F000C8010E94CF068E010F5F1F4F7E0184E06B
:10080000E80EF11CF80181918F0190ED980F9A305C
:1008100020F080E20E94900302C00E9490030E1517
:100820001F0581F78BEA90E00E94BF030F900F90A5
:100830000F90DF91CF911F910F91FF90EF9008954E
:100840000E94CE038EEA90E00E94BF0380EC0E94DB
:100850001A038AEB90E00E94BF0387EA91E60197B2
:10086000F1F700C000000E94CE038CE00E941A0342
:1008700015BA0895EF92FF920F931F93CF93DF93D2
:1008800000D01F92CDB7DEB78C010E94CE0381EC61
:1008900090E00E94BF0380EC0E941A0380E28983EB
:1008A0008A838B834AE050E0BE016F5F7F4FC801AF
:1008B0000E94CF068E010F5F1F4F7E0184E0E80E7D
:1008C000F11CF80181918F0190ED980F9A3020F082
:1008D00080E20E94900302C00E9490030E151F0543
:1008E00081F78BEA90E00E94BF030F900F900F906A
:1008F000DF91CF911F910F91FF90EF900895D09AC3
:100900000895D89A08959BB381E089278BBB0895F9
:10091000D8980895D19897B1892B87B93E9A379A7C
:10092000309A319A329A0895369A349BFECF83E0FA
:100930008A95F1F7000024B185B190E0982F8827BF
:10094000820F911D08951F93CF93DF9381E090E074
:100950000E948A0481E090E00E949404BC0180E03F
:1009600090E00E94AC0520E030E040EA50E40E94B4
:10097000120620E030E040E85AE30E94120620E030
:1009800030E048EC52E40E9412060E947D051AE015
:10099000C0E0D0E0C60FD71F87EA91E60197F1F7D4
:1009A00000C0000081E090E00E949404BC0180E05F
:1009B00090E00E94AC0520E030E040EA50E40E9464
:1009C000120620E030E040E85AE30E94120620E0E0
:1009D00030E048EC52E40E9412060E947D0511505E
:1009E000C9F6CE016AE070E00E94A706CB01DF9154
:1009F000CF911F9108950E9449000E94310280E02A
:100A000090E00895BB9A0895C39A0895C3980895F5
:100A1000DC018DEF8BBBAA30B1059CF544E050E0C2
:100A2000E1E0F0E0BA01645071099F01062E02C0B6
:100A3000220F331F0A94E2F72A233B2302C0359585
:100A400027956A95E2F7232B59F02BB3CF01042E9B
:100A500002C0880F991F0A94E2F7822B8BBB0CC04F
:100A60002BB3BF01042E02C0660F771F0A94E2F772
:100A7000962F909592239BBB4F5F5F4F4830510557
:100A800089F60895DC01C49AC59AC69AC79A0A974E
:100A90009CF544E050E0E1E0F0E0BA0164507109F7
:100AA0009F01062E02C0220F331F0A94E2F72A2369
:100AB0003B2302C0359527956A95E2F7232B59F021
:100AC00028B3CF01042E02C0880F991F0A94E2F7C1
:100AD000822B88BB0CC028B3BF01042E02C0660F56
:100AE000771F0A94E2F7962F9095922398BB4F5F59
:100AF0005F4F4830510589F608950E94F10588F04E
:100B00009F5798F0B92F9927B751B0F0E1F0660FD1
:100B1000771F881F991F1AF0BA95C9F714C0B13012
:100B200091F00E940B06B1E008950C940B06672F1C
:100B3000782F8827B85F39F0B93FCCF38695779541
:100B40006795B395D9F73EF490958095709561952A
:100B50007F4F8F4F9F4F0895E89409C097FB3EF455
:100B600090958095709561957F4F8F4F9F4F9923FA
:100B7000A9F0F92F96E9BB279395F6958795779578
:100B80006795B795F111F8CFFAF4BB0F11F460FF38
:100B90001BC06F5F7F4F8F4F9F4F16C0882311F090
:100BA00096E911C0772321F09EE8872F762F05C0A4
:100BB000662371F096E8862F70E060E02AF09A953F
:100BC000660F771F881FDAF7880F9695879597F934
:100BD000089557FD9058440F551F59F05F3F71F02D
:100BE0004795880F97FB991F61F09F3F79F0879594
:100BF0000895121613061406551FF2CF4695F1DF1D
:100C000008C0161617061806991FF1CF86957105AC
:100C1000610508940895E894BB2766277727CB01E0
:100C200097F908950E9425060C9496060E9488065E
:100C300038F00E948F0620F0952311F00C947F0667
:100C40000C94850611240C940C060E94E90570F39F
:100C5000959FC1F3950F50E0551F629FF001729F61
:100C6000BB27F00DB11D639FAA27F00DB11DAA1F70
:100C7000649F6627B00DA11D661F829F2227B00DBD
:100C8000A11D621F739FB00DA11D621F839FA00D48
:100C9000611D221F749F3327A00D611D231F849F98
:100CA000600D211D822F762F6A2F11249F575040EF
:100CB0009AF0F1F088234AF0EE0FFF1FBB1F661F6A
:100CC000771F881F91505040A9F79E3F510580F033
:100CD0000C947F060C940C065F3FE4F3983ED4F32B
:100CE000869577956795B795F795E7959F5FC1F7D7
:100CF000FE2B880F911D9695879597F9089597F982
:100D00009F6780E870E060E008959FEF80EC0895B1
:100D100000240A94161617061806090608950024DA
:100D20000A9412161306140605060895092E039454
:100D3000000C11F4882352F0BB0F40F4BF2B11F4C8
:100D400060FF04C06F5F7F4F8F4F9F4F089597FBE9
:100D5000072E16F4009407D077FD09D00E94BB0639
:100D600007FC05D03EF4909581959F4F08957095AE
:100D700061957F4F0895AA1BBB1B51E107C0AA1FB5
:100D8000BB1FA617B70710F0A61BB70B881F991F2C
:100D90005A95A9F780959095BC01CD0108954532EB
:100DA000510520F4423010F00C94DA06FB01108259
:100DB000CB010895BB274A3031F4992322F4BDE2D8
:100DC000909581959F4F0C94E606BB27FB01552714
:100DD000AA27880F991FAA1FA41710F0A41B839598
:100DE0005051B9F7A05DAA3308F0A95DA19300970F
:100DF00079F7B111B1931192CB010C94FF06DC018C
:100E0000FC01672F71917723E1F7329704C07C9141
:100E10006D9370836291AE17BF07C8F30895F8947D
:020E2000FFCF02
:100E22003C4D4F4445204F4E200020434F4F4C45F0
:100E320052204F4E200020484541544552204F4EEB
:100E420020005345542054454D50204D4F444500F9
:100E52002121217761726E696E672121210043751C
:100E62007272656E742054656D700027430074754C
:100E7200726E696E67206F666600202020203A2815
:0A0E8200005365742054656D700084
:00000001FF
