:100000000C942A000C9457010C9491010C94290132
:100010000C9447000C9447000C9447000C94470044
:100020000C9447000C9447000C9469020C94470010
:100030000C9447000C9447000C9447000C94470024
:100040000C9447000C9447000C9447000C94470014
:100050000C94470011241FBECFE5D8E0DEBFCDBF12
:1000600010E0A0E6B0E0EEECFEE002C005900D92DC
:10007000AC3CB107D9F720E0ACECB0E001C01D9278
:10008000A23DB207E1F70E942D050C9465070C9480
:1000900000000E9486024091640060E080EA0E94B5
:1000A000890283EC99E00197F1F700C000000E94FB
:1000B00034050E947E0381E090E00E94BC040E940F
:1000C000B1040E9433030E94CA020E948002089574
:1000D0000E94D3020E94BA040E9400048CE00E9495
:1000E0004F030E9484020E9448030E943805109228
:1000F000CC000895CF92DF92EF92FF920F931F935F
:10010000CF93DF931F92CDB7DEB719820E944103D0
:100110008091CC00811108C0AE014F5F5F4F60E05D
:1001200080EA0E94A80203C08091640089830E9433
:10013000D5048C010E94360578018091CF00909102
:10014000D0008017910721F48091CC008D7F11F5AC
:10015000C8016AE070E00E94FD066C01CB010E94BC
:100160003A05C6010E9475058CE00E944F030E946B
:10017000000485E690E00E94F10383EC99E001978A
:10018000F1F700C00000C8010E940D041093D000D8
:100190000093CF00C8014E97C397A0F0909914C068
:1001A0000E9482020E94000483EC99E00197F1F71B
:1001B00000C00000C8010E940D048EE690E00E947D
:1001C000F10302C00E948402898190E09801281BFB
:1001D000390B26303105A4F00E94D0020E94B304EE
:1001E0008091CF009091D000E816F90629F1109384
:1001F000D0000093CF0089E790E00E94F1031CC07B
:10020000801B910B0697A4F00E94CD020E94B504BA
:100210008091CF009091D000E816F90669F0109314
:10022000D0000093CF0085E890E00E94F10304C065
:100230000E94D3020E94BA0481E08093CC000F9008
:10024000DF91CF911F910F91FF90EF90DF90CF90B2
:1002500008951F920F920FB60F9211242F933F9380
:100260004F935F936F937F938F939F93AF93BF93BE
:10027000EF93FF938091D100811104C081E08093BE
:10028000D10004C01092D1000E945204FF91EF915E
:10029000BF91AF919F918F917F916F915F914F919E
:1002A0003F912F910F900FBE0F901F9018951F92A6
:1002B0000F920FB60F9211242F933F934F935F939A
:1002C0006F937F938F939F93AF93BF93EF93FF931E
:1002D0008091D100823059F4809164008B3420F0F9
:1002E0008BE48093640003C08B5F8093640082E0A2
:1002F0008093D1000E94B0051092610010926000BE
:10030000FF91EF91BF91AF919F918F917F916F91ED
:100310005F914F913F912F910F900FBE0F901F90C3
:1003200018951F920F920FB60F9211242F933F939F
:100330004F935F936F937F938F939F93AF93BF93ED
:10034000EF93FF938091D100823059F48091640043
:10035000843220F483E28093640003C0855080934C
:10036000640082E08093D1000E94B0051092610089
:1003700010926000FF91EF91BF91AF919F918F918B
:100380007F916F915F914F913F912F910F900FBE91
:100390000F901F901895EF92FF920F931F93CF939A
:1003A000DF939DEC899F912D1124969596959695B6
:1003B000E92EF12C990F292F220F220F920F891B62
:1003C000082F10E0C9E1D0E00E943605C7010E9465
:1003D0003A05C8010E94750587EA91E60197F1F791
:1003E00000C000000E94380587EA91E60197F1F706
:1003F00000C00000219741F7DF91CF911F910F912D
:10040000FF90EF9008950E94000483EC99E001971B
:10041000F1F700C000000E94840281E990E00E9490
:10042000F10387EA91E60197F1F700C0000080919F
:100430006400882319F090E00E946C0480916400AD
:100440000E94CB010E94BA040E94D3028091CD0089
:100450009091CE0081379240DCF0809160009091C5
:100460006100019690936100809360001092CE002D
:100470001092CD00209162003091630082179307A3
:100480001CF40E94480304C00E9441030E94C90555
:100490004091640060E080EA0E94890281E08093DC
:1004A000D10082E08093CC0008958091D100811129
:1004B00003C00E946800F9CF813019F40E947A00CD
:1004C000F4CF823019F40E940302EFCF1092D100D2
:1004D000ECCF1F920F920FB60F9211248F939F9320
:1004E0008091CD009091CE0001969093CE008093A4
:1004F000CD009F918F910F900FBE0F901F90189578
:10050000889A0895909A0895909808950E94D60226
:100510000895CF93DF93D62FC42F0E94DA028D2F38
:1005200090E00E94140383EC99E00197F1F700C07A
:1005300000008C2F90E00E94140383EC99E0019757
:10054000F1F700C000000E942D03DF91CF910895C4
:100550000F931F93CF93DF93C82FD62F8A010E944A
:10056000DA028D2F90E00E94140381E08C0F0E942C
:10057000F7020E942603F801808383EC99E001973B
:10058000F1F700C000000E942D03DF91CF911F9171
:100590000F910895B89AB99A0895C09AC19808958C
:1005A000C098C19A0895C098C198089511B88AE278
:1005B00080B9089594EA96BF06B607FEFDCF91B1C3
:1005C000987F983071F483B984E886BF06B607FE39
:1005D000FDCF81B1887F883131F0803231F083E006
:1005E000089580E0089581E0089582E0089594EAF6
:1005F00096BF06B607FEFDCF91B1987F903171F49A
:1006000083B984E886BF06B607FEFDCF81B1887F37
:10061000803431F0883431F083E0089580E008952B
:1006200081E0089582E0089583B984E886BF06B624
:1006300007FEFDCF81B1887F883221F0803321F021
:1006400082E0089580E0089581E0089584EC86BFFB
:1006500006B607FEFDCF83B1089584E986BF06B6CE
:1006600004FCFDCF089585B7886085BF85B782609B
:1006700085BF85B7816085BF8BB780628BBF78945B
:1006800008958BB780648BBF8BB780688BBF08954C
:100690008BB78F7B8BBF8BB78F778BBF089592B350
:1006A0009F70282F207F922B92BBAD98AE98AF9A67
:1006B000EBE4FDE13197F1F700C00000AF98EBE407
:1006C000FDE13197F1F700C0000022B32F70F0E197
:1006D0008F9FC0011124822B82BBAD98AE98AF9A38
:1006E0008BE49DE10197F1F700C00000AF98EBE4C7
:1006F000FDE13197F1F700C000000895A59AA69A90
:10070000A79A8C9A8D9A8E9A8F9A87EA91E601978A
:10071000F1F700C0000082E00E944F038BE49DE1EE
:100720000197F1F700C0000088E20E944F038BE4BC
:100730009DE10197F1F700C0000080E80E944F039F
:100740008BE49DE10197F1F700C000008CE00E946E
:100750004F038BE49DE10197F1F700C0000081E0B9
:100760000E944F038BE49DE10197F1F700C0000068
:1007700086E00E944F038BE49DE10197F1F700C0F2
:100780000000089592B39F70282F207F922B92BB78
:10079000AD9AAE98AF9AEBE4FDE13197F1F700C066
:1007A0000000AF98EBE4FDE13197F1F700C00000E5
:1007B00022B32F70F0E18F9FC0011124822B82BBE6
:1007C000AD9AAE98AF9A8BE49DE10197F1F700C026
:1007D0000000AF98EBE4FDE13197F1F700C00000B5
:1007E0000895CF93DF93EC018881882331F021961F
:1007F0000E94C20389918111FBCFDF91CF910895AF
:1008000081E00E944F038BE49DE10197F1F700C066
:10081000000080E80E944F030895EF92FF920F932B
:100820001F93CF93DF9300D01F92CDB7DEB78C011B
:100830000E9400048FE990E00E94F10380EC0E9486
:100840004F0380E289838A838B834AE050E0BE01B4
:100850006F5F7F4FC8010E9425078E010F5F1F4FFA
:100860007E0184E0E80EF11CF80181918F0190ED8A
:10087000980F9A3020F080E20E94C20302C00E94CA
:10088000C2030E151F0581F78CEA90E00E94F10368
:100890000F900F900F90DF91CF911F910F91FF90CC
:1008A000EF9008950E9400048FEA90E00E94F10307
:1008B00080EC0E944F038BEB90E00E94F10387EAEB
:1008C00091E60197F1F700C000000E9400048CE05F
:1008D0000E944F0315BA0895EF92FF920F931F9352
:1008E000CF93DF9300D01F92CDB7DEB78C010E946B
:1008F000000482EC90E00E94F10380EC0E944F0320
:1009000080E289838A838B834AE050E0BE016F5F77
:100910007F4FC8010E9425078E010F5F1F4F7E0188
:1009200084E0E80EF11CF80181918F0190ED980FA1
:100930009A3020F080E20E94C20302C00E94C203EB
:100940000E151F0581F78CEA90E00E94F1030F90CD
:100950000F900F90DF91CF911F910F91FF90EF902B
:100960000895D09A0895D89A08959BB381E0892775
:100970008BBB0895D8980895D19897B1892B87B9E2
:100980003E9A379A309A319A329A0895369A349B21
:10099000FECF83E08A95F1F7000024B185B190E0A5
:1009A000982F8827820F911D08951F93CF93DF936F
:1009B00081E090E00E94BC0481E090E00E94C604C7
:1009C000BC0180E090E00E94020620E030E040EAB6
:1009D00050E40E94680620E030E040E85AE30E94BC
:1009E000680620E030E048EC52E40E9468060E946D
:1009F000D3051AE0C0E0D0E0C60FD71F87EA91E622
:100A00000197F1F700C0000081E090E00E94C60469
:100A1000BC0180E090E00E94020620E030E040EA65
:100A200050E40E94680620E030E040E85AE30E946B
:100A3000680620E030E048EC52E40E9468060E941C
:100A4000D3051150C9F6CE016AE070E00E94FD06A0
:100A5000CB01DF91CF911F9108950E9449000E9420
:100A6000550280E090E00895BB9A0895C39A0895D6
:100A7000C3980895DC01DC9ADD9ADE9ADF9A0A9722
:100A80009CF544E050E0E1E0F0E0BA016450710907
:100A90009F01062E02C0220F331F0A94E2F72A2379
:100AA0003B2302C0359527956A95E2F7232B59F031
:100AB0002BB3CF01042E02C0880F991F0A94E2F7CE
:100AC000822B8BBB0CC02BB3BF01042E02C0660F60
:100AD000771F0A94E2F7962F909592239BBB4F5F66
:100AE0005F4F4830510589F60895DC01C49AC59AD4
:100AF000C69AC79A0A979CF544E050E0E1E0F0E01E
:100B0000BA01645071099F01062E02C0220F331FE3
:100B10000A94E2F72A233B2302C0359527956A956C
:100B2000E2F7232B59F028B3CF01042E02C0880F1F
:100B3000991F0A94E2F7822B88BB0CC028B3BF012F
:100B4000042E02C0660F771F0A94E2F7962F909545
:100B5000922398BB4F5F5F4F4830510589F6089547
:100B600083B7886083BF83B78F7E83BF83B78F7D52
:100B700083BF83B78E7F83BF83B7826083BF83B712
:100B80008B7F83BF89B7826089BF88EC8CBF12BE20
:100B9000089583B78E7F83BF83B78D7F83BF83B76D
:100BA0008B7F83BF08950E94470688F09F5798F077
:100BB000B92F9927B751B0F0E1F0660F771F881F62
:100BC000991F1AF0BA95C9F714C0B13091F00E947C
:100BD0006106B1E008950C946106672F782F88278D
:100BE000B85F39F0B93FCCF3869577956795B395A3
:100BF000D9F73EF490958095709561957F4F8F4F12
:100C00009F4F0895E89409C097FB3EF49095809516
:100C1000709561957F4F8F4F9F4F9923A9F0F92FC2
:100C200096E9BB279395F695879577956795B79540
:100C3000F111F8CFFAF4BB0F11F460FF1BC06F5F26
:100C40007F4F8F4F9F4F16C0882311F096E911C038
:100C5000772321F09EE8872F762F05C0662371F059
:100C600096E8862F70E060E02AF09A95660F771F6D
:100C7000881FDAF7880F9695879597F9089557FD9D
:100C80009058440F551F59F05F3F71F04795880FFA
:100C900097FB991F61F09F3F79F087950895121691
:100CA00013061406551FF2CF4695F1DF08C016163D
:100CB00017061806991FF1CF8695710561050894EE
:100CC0000895E894BB2766277727CB0197F9089505
:100CD0000E947B060C94EC060E94DE0638F00E940F
:100CE000E50620F0952311F00C94D5060C94DB0654
:100CF00011240C9462060E943F0670F3959FC1F385
:100D0000950F50E0551F629FF001729FBB27F00DB9
:100D1000B11D639FAA27F00DB11DAA1F649F66270E
:100D2000B00DA11D661F829F2227B00DA11D621F5D
:100D3000739FB00DA11D621F839FA00D611D221F17
:100D4000749F3327A00D611D231F849F600D211DFB
:100D5000822F762F6A2F11249F5750409AF0F1F07E
:100D600088234AF0EE0FFF1FBB1F661F771F881FE7
:100D700091505040A9F79E3F510580F00C94D50644
:100D80000C9462065F3FE4F3983ED4F38695779522
:100D90006795B795F795E7959F5FC1F7FE2B880F8D
:100DA000911D9695879597F9089597F99F6780E823
:100DB00070E060E008959FEF80EC089500240A94AD
:100DC0001616170618060906089500240A94121626
:100DD0001306140605060895092E0394000C11F459
:100DE000882352F0BB0F40F4BF2B11F460FF04C006
:100DF0006F5F7F4F8F4F9F4F089597FB072E16F41D
:100E0000009407D077FD09D00E94110707FC05D098
:100E10003EF4909581959F4F0895709561957F4F11
:100E20000895AA1BBB1B51E107C0AA1FBB1FA61731
:100E3000B70710F0A61BB70B881F991F5A95A9F783
:100E400080959095BC01CD0108954532510520F45F
:100E5000423010F00C943007FB011082CB01089552
:100E6000BB274A3031F4992322F4BDE29095819555
:100E70009F4F0C943C07BB27FB015527AA27880FDF
:100E8000991FAA1FA41710F0A41B83955051B9F7FE
:100E9000A05DAA3308F0A95DA193009779F7B1117D
:100EA000B1931192CB010C945507DC01FC01672F23
:100EB00071917723E1F7329704C07C916D93708331
:0E0EC0006291AE17BF07C8F30895F894FFCFF4
:100ECE00050005003C4D4F4445204F4E200020218B
:100EDE007761726E696E67210020434F4F4C455209
:100EEE00204F4E200020484541544552204F4E2061
:100EFE00005345542054454D50204D4F444500431A
:100F0E00757272656E742054656D7000274300749F
:100F1E0075726E696E67206F666600202020203A1B
:0C0F2E0028005365742054656D700000AD
:00000001FF
